{
  "_format": "hh-sol-artifact-1",
  "contractName": "CreditSystem",
  "sourceName": "contracts/CreditSystem.sol",
  "abi": [
    {
      "inputs": [
        {
          "internalType": "address",
          "name": "_rupiahTokenAddress",
          "type": "address"
        }
      ],
      "stateMutability": "nonpayable",
      "type": "constructor"
    },
    {
      "anonymous": false,
      "inputs": [
        {
          "indexed": true,
          "internalType": "address",
          "name": "newAdmin",
          "type": "address"
        }
      ],
      "name": "AdminAdded",
      "type": "event"
    },
    {
      "anonymous": false,
      "inputs": [
        {
          "indexed": true,
          "internalType": "address",
          "name": "removedAdmin",
          "type": "address"
        }
      ],
      "name": "AdminRemoved",
      "type": "event"
    },
    {
      "anonymous": false,
      "inputs": [
        {
          "indexed": true,
          "internalType": "uint256",
          "name": "loanId",
          "type": "uint256"
        },
        {
          "indexed": true,
          "internalType": "address",
          "name": "borrower",
          "type": "address"
        },
        {
          "indexed": false,
          "internalType": "uint256",
          "name": "amount",
          "type": "uint256"
        }
      ],
      "name": "LoanPaid",
      "type": "event"
    },
    {
      "anonymous": false,
      "inputs": [
        {
          "indexed": true,
          "internalType": "uint256",
          "name": "loanId",
          "type": "uint256"
        },
        {
          "indexed": true,
          "internalType": "address",
          "name": "borrower",
          "type": "address"
        },
        {
          "indexed": false,
          "internalType": "uint256",
          "name": "amount",
          "type": "uint256"
        },
        {
          "indexed": false,
          "internalType": "uint256",
          "name": "duration",
          "type": "uint256"
        }
      ],
      "name": "LoanRequested",
      "type": "event"
    },
    {
      "anonymous": false,
      "inputs": [
        {
          "indexed": true,
          "internalType": "uint256",
          "name": "loanId",
          "type": "uint256"
        },
        {
          "indexed": false,
          "internalType": "enum CreditSystem.LoanStatus",
          "name": "status",
          "type": "uint8"
        }
      ],
      "name": "LoanStatusUpdated",
      "type": "event"
    },
    {
      "inputs": [
        {
          "internalType": "address",
          "name": "_newAdmin",
          "type": "address"
        }
      ],
      "name": "addAdmin",
      "outputs": [],
      "stateMutability": "nonpayable",
      "type": "function"
    },
    {
      "inputs": [],
      "name": "admin",
      "outputs": [
        {
          "internalType": "address",
          "name": "",
          "type": "address"
        }
      ],
      "stateMutability": "view",
      "type": "function"
    },
    {
      "inputs": [
        {
          "internalType": "uint256",
          "name": "_loanId",
          "type": "uint256"
        }
      ],
      "name": "getLoan",
      "outputs": [
        {
          "internalType": "uint256",
          "name": "id",
          "type": "uint256"
        },
        {
          "internalType": "address",
          "name": "borrower",
          "type": "address"
        },
        {
          "internalType": "uint256",
          "name": "amount",
          "type": "uint256"
        },
        {
          "internalType": "uint256",
          "name": "duration",
          "type": "uint256"
        },
        {
          "internalType": "enum CreditSystem.LoanStatus",
          "name": "status",
          "type": "uint8"
        },
        {
          "internalType": "uint256",
          "name": "createdAt",
          "type": "uint256"
        },
        {
          "internalType": "uint256",
          "name": "amountPaid",
          "type": "uint256"
        }
      ],
      "stateMutability": "view",
      "type": "function"
    },
    {
      "inputs": [
        {
          "internalType": "address",
          "name": "",
          "type": "address"
        }
      ],
      "name": "isAdmin",
      "outputs": [
        {
          "internalType": "bool",
          "name": "",
          "type": "bool"
        }
      ],
      "stateMutability": "view",
      "type": "function"
    },
    {
      "inputs": [],
      "name": "loanCounter",
      "outputs": [
        {
          "internalType": "uint256",
          "name": "",
          "type": "uint256"
        }
      ],
      "stateMutability": "view",
      "type": "function"
    },
    {
      "inputs": [
        {
          "internalType": "uint256",
          "name": "",
          "type": "uint256"
        }
      ],
      "name": "loans",
      "outputs": [
        {
          "internalType": "uint256",
          "name": "id",
          "type": "uint256"
        },
        {
          "internalType": "address",
          "name": "borrower",
          "type": "address"
        },
        {
          "internalType": "uint256",
          "name": "amount",
          "type": "uint256"
        },
        {
          "internalType": "uint256",
          "name": "duration",
          "type": "uint256"
        },
        {
          "internalType": "enum CreditSystem.LoanStatus",
          "name": "status",
          "type": "uint8"
        },
        {
          "internalType": "uint256",
          "name": "createdAt",
          "type": "uint256"
        },
        {
          "internalType": "uint256",
          "name": "amountPaid",
          "type": "uint256"
        }
      ],
      "stateMutability": "view",
      "type": "function"
    },
    {
      "inputs": [
        {
          "internalType": "uint256",
          "name": "_loanId",
          "type": "uint256"
        },
        {
          "internalType": "uint256",
          "name": "_amount",
          "type": "uint256"
        }
      ],
      "name": "payLoan",
      "outputs": [],
      "stateMutability": "nonpayable",
      "type": "function"
    },
    {
      "inputs": [
        {
          "internalType": "address",
          "name": "_admin",
          "type": "address"
        }
      ],
      "name": "removeAdmin",
      "outputs": [],
      "stateMutability": "nonpayable",
      "type": "function"
    },
    {
      "inputs": [
        {
          "internalType": "uint256",
          "name": "_amount",
          "type": "uint256"
        },
        {
          "internalType": "uint256",
          "name": "_duration",
          "type": "uint256"
        }
      ],
      "name": "requestLoan",
      "outputs": [],
      "stateMutability": "nonpayable",
      "type": "function"
    },
    {
      "inputs": [],
      "name": "rupiahToken",
      "outputs": [
        {
          "internalType": "contract IRupiahToken",
          "name": "",
          "type": "address"
        }
      ],
      "stateMutability": "view",
      "type": "function"
    },
    {
      "inputs": [
        {
          "internalType": "uint256",
          "name": "_loanId",
          "type": "uint256"
        },
        {
          "internalType": "bool",
          "name": "_approve",
          "type": "bool"
        }
      ],
      "name": "updateLoanStatus",
      "outputs": [],
      "stateMutability": "nonpayable",
      "type": "function"
    }
  ],
  "bytecode": "0x60806040523480156200001157600080fd5b5060405162001f5638038062001f56833981810160405281019062000037919062000189565b336000806101000a81548173ffffffffffffffffffffffffffffffffffffffff021916908373ffffffffffffffffffffffffffffffffffffffff1602179055506001600460003373ffffffffffffffffffffffffffffffffffffffff1673ffffffffffffffffffffffffffffffffffffffff16815260200190815260200160002060006101000a81548160ff02191690831515021790555080600160006101000a81548173ffffffffffffffffffffffffffffffffffffffff021916908373ffffffffffffffffffffffffffffffffffffffff160217905550600060028190555050620001bb565b600080fd5b600073ffffffffffffffffffffffffffffffffffffffff82169050919050565b6000620001518262000124565b9050919050565b620001638162000144565b81146200016f57600080fd5b50565b600081519050620001838162000158565b92915050565b600060208284031215620001a257620001a16200011f565b5b6000620001b28482850162000172565b91505092915050565b611d8b80620001cb6000396000f3fe608060405234801561001057600080fd5b50600436106100a95760003560e01c8063880aca1a11610071578063880aca1a1461016a57806389306e6114610186578063a5722198146101a2578063aa452fa6146101c0578063e1ec3c68146101dc578063f851a44014610212576100a9565b80631785f53c146100ae57806324d7806c146100ca57806334d9289e146100fa578063504006ca14610118578063704802751461014e575b600080fd5b6100c860048036038101906100c39190611236565b610230565b005b6100e460048036038101906100df9190611236565b6104ca565b6040516100f1919061127e565b60405180910390f35b6101026104ea565b60405161010f91906112b2565b60405180910390f35b610132600480360381019061012d91906112f9565b6104f0565b60405161014597969594939291906113ac565b60405180910390f35b61016860048036038101906101639190611236565b61066d565b005b610184600480360381019061017f9190611447565b6108e9565b005b6101a0600480360381019061019b9190611487565b610b5f565b005b6101aa610ef7565b6040516101b79190611526565b60405180910390f35b6101da60048036038101906101d59190611487565b610f1d565b005b6101f660048036038101906101f191906112f9565b611140565b60405161020997969594939291906113ac565b60405180910390f35b61021a6111af565b6040516102279190611541565b60405180910390f35b600460003373ffffffffffffffffffffffffffffffffffffffff1673ffffffffffffffffffffffffffffffffffffffff16815260200190815260200160002060009054906101000a900460ff16806102d3575060008054906101000a900473ffffffffffffffffffffffffffffffffffffffff1673ffffffffffffffffffffffffffffffffffffffff163373ffffffffffffffffffffffffffffffffffffffff16145b610312576040517f08c379a0000000000000000000000000000000000000000000000000000000008152600401610309906115df565b60405180910390fd5b60008054906101000a900473ffffffffffffffffffffffffffffffffffffffff1673ffffffffffffffffffffffffffffffffffffffff168173ffffffffffffffffffffffffffffffffffffffff16036103a0576040517f08c379a00000000000000000000000000000000000000000000000000000000081526004016103979061164b565b60405180910390fd5b600460008273ffffffffffffffffffffffffffffffffffffffff1673ffffffffffffffffffffffffffffffffffffffff16815260200190815260200160002060009054906101000a900460ff1661042c576040517f08c379a0000000000000000000000000000000000000000000000000000000008152600401610423906116b7565b60405180910390fd5b6000600460008373ffffffffffffffffffffffffffffffffffffffff1673ffffffffffffffffffffffffffffffffffffffff16815260200190815260200160002060006101000a81548160ff0219169083151502179055508073ffffffffffffffffffffffffffffffffffffffff167fa3b62bc36326052d97ea62d63c3d60308ed4c3ea8ac079dd8499f1e9c4f80c0f60405160405180910390a250565b60046020528060005260406000206000915054906101000a900460ff1681565b60025481565b6000806000806000806000808811801561050c57506002548811155b61054b576040517f08c379a000000000000000000000000000000000000000000000000000000000815260040161054290611723565b60405180910390fd5b6000600360008a81526020019081526020016000206040518060e0016040529081600082015481526020016001820160009054906101000a900473ffffffffffffffffffffffffffffffffffffffff1673ffffffffffffffffffffffffffffffffffffffff1673ffffffffffffffffffffffffffffffffffffffff16815260200160028201548152602001600382015481526020016004820160009054906101000a900460ff16600381111561060457610603611335565b5b600381111561061657610615611335565b5b8152602001600582015481526020016006820154815250509050806000015181602001518260400151836060015184608001518560a001518660c00151975097509750975097509750975050919395979092949650565b600460003373ffffffffffffffffffffffffffffffffffffffff1673ffffffffffffffffffffffffffffffffffffffff16815260200190815260200160002060009054906101000a900460ff1680610710575060008054906101000a900473ffffffffffffffffffffffffffffffffffffffff1673ffffffffffffffffffffffffffffffffffffffff163373ffffffffffffffffffffffffffffffffffffffff16145b61074f576040517f08c379a0000000000000000000000000000000000000000000000000000000008152600401610746906115df565b60405180910390fd5b600073ffffffffffffffffffffffffffffffffffffffff168173ffffffffffffffffffffffffffffffffffffffff16036107be576040517f08c379a00000000000000000000000000000000000000000000000000000000081526004016107b59061178f565b60405180910390fd5b600460008273ffffffffffffffffffffffffffffffffffffffff1673ffffffffffffffffffffffffffffffffffffffff16815260200190815260200160002060009054906101000a900460ff161561084b576040517f08c379a0000000000000000000000000000000000000000000000000000000008152600401610842906117fb565b60405180910390fd5b6001600460008373ffffffffffffffffffffffffffffffffffffffff1673ffffffffffffffffffffffffffffffffffffffff16815260200190815260200160002060006101000a81548160ff0219169083151502179055508073ffffffffffffffffffffffffffffffffffffffff167f44d6d25963f097ad14f29f06854a01f575648a1ef82f30e562ccd3889717e33960405160405180910390a250565b600460003373ffffffffffffffffffffffffffffffffffffffff1673ffffffffffffffffffffffffffffffffffffffff16815260200190815260200160002060009054906101000a900460ff168061098c575060008054906101000a900473ffffffffffffffffffffffffffffffffffffffff1673ffffffffffffffffffffffffffffffffffffffff163373ffffffffffffffffffffffffffffffffffffffff16145b6109cb576040517f08c379a00000000000000000000000000000000000000000000000000000000081526004016109c2906115df565b60405180910390fd5b6000821180156109dd57506002548211155b610a1c576040517f08c379a0000000000000000000000000000000000000000000000000000000008152600401610a1390611723565b60405180910390fd5b600060036000848152602001908152602001600020905060006003811115610a4757610a46611335565b5b8160040160009054906101000a900460ff166003811115610a6b57610a6a611335565b5b14610aab576040517f08c379a0000000000000000000000000000000000000000000000000000000008152600401610aa290611867565b60405180910390fd5b8115610ae35760018160040160006101000a81548160ff02191690836003811115610ad957610ad8611335565b5b0217905550610b11565b60028160040160006101000a81548160ff02191690836003811115610b0b57610b0a611335565b5b02179055505b827fca025541f3b98a26e6b88a58dde138008b18408e6643c0b90cfed597351fe2c88260040160009054906101000a900460ff16604051610b529190611887565b60405180910390a2505050565b600082118015610b7157506002548211155b610bb0576040517f08c379a0000000000000000000000000000000000000000000000000000000008152600401610ba790611723565b60405180910390fd5b600060036000848152602001908152602001600020905060016003811115610bdb57610bda611335565b5b8160040160009054906101000a900460ff166003811115610bff57610bfe611335565b5b14610c3f576040517f08c379a0000000000000000000000000000000000000000000000000000000008152600401610c36906118ee565b60405180910390fd5b3373ffffffffffffffffffffffffffffffffffffffff168160010160009054906101000a900473ffffffffffffffffffffffffffffffffffffffff1673ffffffffffffffffffffffffffffffffffffffff1614610cd1576040517f08c379a0000000000000000000000000000000000000000000000000000000008152600401610cc890611980565b60405180910390fd5b60008211610d14576040517f08c379a0000000000000000000000000000000000000000000000000000000008152600401610d0b90611a12565b60405180910390fd5b8060020154828260060154610d299190611a61565b1115610d6a576040517f08c379a0000000000000000000000000000000000000000000000000000000008152600401610d6190611b07565b60405180910390fd5b600160009054906101000a900473ffffffffffffffffffffffffffffffffffffffff1673ffffffffffffffffffffffffffffffffffffffff166323b872dd3330856040518463ffffffff1660e01b8152600401610dc993929190611b27565b6020604051808303816000875af1158015610de8573d6000803e3d6000fd5b505050506040513d601f19601f82011682018060405250810190610e0c9190611b73565b610e4b576040517f08c379a0000000000000000000000000000000000000000000000000000000008152600401610e4290611bec565b60405180910390fd5b81816006016000828254610e5f9190611a61565b925050819055508060020154816006015403610ea35760038160040160006101000a81548160ff02191690836003811115610e9d57610e9c611335565b5b02179055505b3373ffffffffffffffffffffffffffffffffffffffff16837fc2b7b85da0b4126352be1a3fb321c166a2706622365e208c72e40f2c7a445eb084604051610eea91906112b2565b60405180910390a3505050565b600160009054906101000a900473ffffffffffffffffffffffffffffffffffffffff1681565b60008211610f60576040517f08c379a0000000000000000000000000000000000000000000000000000000008152600401610f5790611c58565b60405180910390fd5b60018110158015610f725750603c8111155b610fb1576040517f08c379a0000000000000000000000000000000000000000000000000000000008152600401610fa890611cc4565b60405180910390fd5b60026000815480929190610fc490611ce4565b91905055506040518060e0016040528060025481526020013373ffffffffffffffffffffffffffffffffffffffff1681526020018381526020018281526020016000600381111561101857611017611335565b5b815260200142815260200160008152506003600060025481526020019081526020016000206000820151816000015560208201518160010160006101000a81548173ffffffffffffffffffffffffffffffffffffffff021916908373ffffffffffffffffffffffffffffffffffffffff160217905550604082015181600201556060820151816003015560808201518160040160006101000a81548160ff021916908360038111156110cd576110cc611335565b5b021790555060a0820151816005015560c082015181600601559050503373ffffffffffffffffffffffffffffffffffffffff166002547f68595dbe887ae7f496f2c88735019a8918919a1decfdee6bdb460480ab87decb8484604051611134929190611d2c565b60405180910390a35050565b60036020528060005260406000206000915090508060000154908060010160009054906101000a900473ffffffffffffffffffffffffffffffffffffffff16908060020154908060030154908060040160009054906101000a900460ff16908060050154908060060154905087565b60008054906101000a900473ffffffffffffffffffffffffffffffffffffffff1681565b600080fd5b600073ffffffffffffffffffffffffffffffffffffffff82169050919050565b6000611203826111d8565b9050919050565b611213816111f8565b811461121e57600080fd5b50565b6000813590506112308161120a565b92915050565b60006020828403121561124c5761124b6111d3565b5b600061125a84828501611221565b91505092915050565b60008115159050919050565b61127881611263565b82525050565b6000602082019050611293600083018461126f565b92915050565b6000819050919050565b6112ac81611299565b82525050565b60006020820190506112c760008301846112a3565b92915050565b6112d681611299565b81146112e157600080fd5b50565b6000813590506112f3816112cd565b92915050565b60006020828403121561130f5761130e6111d3565b5b600061131d848285016112e4565b91505092915050565b61132f816111f8565b82525050565b7f4e487b7100000000000000000000000000000000000000000000000000000000600052602160045260246000fd5b6004811061137557611374611335565b5b50565b600081905061138682611364565b919050565b600061139682611378565b9050919050565b6113a68161138b565b82525050565b600060e0820190506113c1600083018a6112a3565b6113ce6020830189611326565b6113db60408301886112a3565b6113e860608301876112a3565b6113f5608083018661139d565b61140260a08301856112a3565b61140f60c08301846112a3565b98975050505050505050565b61142481611263565b811461142f57600080fd5b50565b6000813590506114418161141b565b92915050565b6000806040838503121561145e5761145d6111d3565b5b600061146c858286016112e4565b925050602061147d85828601611432565b9150509250929050565b6000806040838503121561149e5761149d6111d3565b5b60006114ac858286016112e4565b92505060206114bd858286016112e4565b9150509250929050565b6000819050919050565b60006114ec6114e76114e2846111d8565b6114c7565b6111d8565b9050919050565b60006114fe826114d1565b9050919050565b6000611510826114f3565b9050919050565b61152081611505565b82525050565b600060208201905061153b6000830184611517565b92915050565b60006020820190506115566000830184611326565b92915050565b600082825260208201905092915050565b7f48616e79612061646d696e2079616e672062697361206d656c616b756b616e2060008201527f696e690000000000000000000000000000000000000000000000000000000000602082015250565b60006115c960238361155c565b91506115d48261156d565b604082019050919050565b600060208201905081810360008301526115f8816115bc565b9050919050565b7f41646d696e207574616d6120746964616b206269736120646968617075730000600082015250565b6000611635601e8361155c565b9150611640826115ff565b602082019050919050565b6000602082019050818103600083015261166481611628565b9050919050565b7f416c616d61742062756b616e2061646d696e0000000000000000000000000000600082015250565b60006116a160128361155c565b91506116ac8261166b565b602082019050919050565b600060208201905081810360008301526116d081611694565b9050919050565b7f49442070696e6a616d616e20746964616b2076616c6964000000000000000000600082015250565b600061170d60178361155c565b9150611718826116d7565b602082019050919050565b6000602082019050818103600083015261173c81611700565b9050919050565b7f416c616d617420746964616b2076616c69640000000000000000000000000000600082015250565b600061177960128361155c565b915061178482611743565b602082019050919050565b600060208201905081810360008301526117a88161176c565b9050919050565b7f416c616d61742073756461682061646d696e0000000000000000000000000000600082015250565b60006117e560128361155c565b91506117f0826117af565b602082019050919050565b60006020820190508181036000830152611814816117d8565b9050919050565b7f50696e6a616d616e206861727573206265727374617475732050454e44494e47600082015250565b600061185160208361155c565b915061185c8261181b565b602082019050919050565b6000602082019050818103600083015261188081611844565b9050919050565b600060208201905061189c600083018461139d565b92915050565b7f50696e6a616d616e206861727573206469736574756a75690000000000000000600082015250565b60006118d860188361155c565b91506118e3826118a2565b602082019050919050565b60006020820190508181036000830152611907816118cb565b9050919050565b7f48616e79612070656d696e6a616d2079616e672062697361206d656d6261796160008201527f7200000000000000000000000000000000000000000000000000000000000000602082015250565b600061196a60218361155c565b91506119758261190e565b604082019050919050565b600060208201905081810360008301526119998161195d565b9050919050565b7f4a756d6c61682070656d6261796172616e206861727573206c6562696820646160008201527f7269203000000000000000000000000000000000000000000000000000000000602082015250565b60006119fc60248361155c565b9150611a07826119a0565b604082019050919050565b60006020820190508181036000830152611a2b816119ef565b9050919050565b7f4e487b7100000000000000000000000000000000000000000000000000000000600052601160045260246000fd5b6000611a6c82611299565b9150611a7783611299565b9250828201905080821115611a8f57611a8e611a32565b5b92915050565b7f50656d6261796172616e206d656c6562696869206a756d6c61682070696e6a6160008201527f6d616e0000000000000000000000000000000000000000000000000000000000602082015250565b6000611af160238361155c565b9150611afc82611a95565b604082019050919050565b60006020820190508181036000830152611b2081611ae4565b9050919050565b6000606082019050611b3c6000830186611326565b611b496020830185611326565b611b5660408301846112a3565b949350505050565b600081519050611b6d8161141b565b92915050565b600060208284031215611b8957611b886111d3565b5b6000611b9784828501611b5e565b91505092915050565b7f5472616e7366657220746f6b656e20676167616c000000000000000000000000600082015250565b6000611bd660148361155c565b9150611be182611ba0565b602082019050919050565b60006020820190508181036000830152611c0581611bc9565b9050919050565b7f4a756d6c6168206861727573206c656269682064617269203000000000000000600082015250565b6000611c4260198361155c565b9150611c4d82611c0c565b602082019050919050565b60006020820190508181036000830152611c7181611c35565b9050919050565b7f44757261736920686172757320616e7461726120312d36302062756c616e0000600082015250565b6000611cae601e8361155c565b9150611cb982611c78565b602082019050919050565b60006020820190508181036000830152611cdd81611ca1565b9050919050565b6000611cef82611299565b91507fffffffffffffffffffffffffffffffffffffffffffffffffffffffffffffffff8203611d2157611d20611a32565b5b600182019050919050565b6000604082019050611d4160008301856112a3565b611d4e60208301846112a3565b939250505056fea2646970667358221220dfd4bd52a1819920e791fea00e11b112637c043e484b15127771796b11330ae764736f6c63430008140033",
  "linkReferences": {},
  "deployedLinkReferences": {}
}